:100000000C942A000C9447000C9447000C94470071
:100010000C9447000C9447000C9447000C94470044
:100020000C9447000C9447000C94ED000C9447008E
:100030000C9447000C9447000C9447000C94470024
:100040000C9447000C9447000C9447000C94470014
:100050000C94470011241FBECFE5D8E0DEBFCDBF12
:1000600013E0A0E6B0E0E4E9F7E102C005900D92EC
:10007000A230B107D9F723E0A2E0B3E001C01D929E
:10008000AE30B207E1F70E9409080C94C80B0C943B
:1000900000008BE083BF8BE98CBF89B7826089BF8A
:1000A0000895AC01009791F19C01329522952F7033
:1000B00023273F702327AEE3BAE00E94C10820E95E
:1000C00031E0BC01629FC001639F900D729F900D53
:1000D000112448175907E1F09A013695279536956E
:1000E0002795ABE7B4E10E94C1089695879564E631
:1000F000689F9001699F300D11244217530751F0FA
:1001000043705527452B41F481E0089580E0089520
:1001100081E0089580E0089580E008951F93CF93D3
:10012000DF93CDB7DEB72D970FB6F894DEBF0FBEC5
:10013000CDBF9DE0EBE7F0E0DE01119601900D925E
:100140009A95E1F79FEF980F9C3080F4182F82303A
:1001500029F4CB010E94510081110AC0E1E0F0E0D6
:10016000EC0FFD1FE10FF11D808103C08FE101C085
:100170008DE12D960FB6F894DEBF0FBECDBFDF9197
:10018000CF911F9108950F931F93CF93DF93C09149
:100190000803CF5FC0930803009105031091060385
:1001A000D0910703B8018D2F0E948E008C1780F428
:1001B00081E080930803DF5FD0930703DD3040F0D8
:1001C000809307030F5F1F4F1093060300930503EF
:1001D000DF91CF911F910F9108951F920F920FB64B
:1001E0000F9211242F933F934F935F936F937F93BD
:1001F0008F939F93AF93BF93EF93FF9380910903E6
:1002000090910A030A9690930A038093090381E070
:10021000809303038091090390910A03883E9340E1
:10022000C0F110920A031092090380910B038F5FB3
:1002300080930B0381E08093020380910B038C3346
:1002400040F110920B0380910C038F5F80930C039D
:1002500080910C038C33E8F010920C0380910D0315
:100260008F5F80930D0380910D03883190F0109281
:100270000D0380910803882361F080910703882390
:1002800041F08091050390910603892B11F00E94A3
:10029000C300FF91EF91BF91AF919F918F917F919B
:1002A0006F915F914F913F912F910F900FBE0F90E3
:1002B0001F90189590E00FC082B3806482BB86EADD
:1002C0008A95F1F700C082B38F7B82BB86EA8A955C
:1002D000F1F700C09F5F983278F3089590E00FC067
:1002E00082B3806482BB86EA8A95F1F700C082B34C
:1002F0008F7B82BB86EA8A95F1F700C09F5F983CAE
:1003000078F3089588BB82B38E7F82BB82B38D7FE2
:1003100082BB82B3846082BB000082B38B7F82BBCE
:1003200083EF91E00197F1F700C00000089588BBCA
:1003300082B3816082BB82B38D7F82BB82B38460D3
:1003400082BB000082B38B7F82BB83EF91E0019779
:10035000F1F700C00000089581B3876081BB8FEF83
:1003600087BB87E893E10197F1F700C0000088E3BD
:100370000E9482018CE00E94820186E00E9482013C
:1003800081E00E94820183EF91E00197F1F700C0C4
:10039000000080E80E948201089581E00E948201AD
:1003A00080E80E94820108950F931F93CF93DF93FB
:1003B0008C01C0E0D0E003C00E9497012196F801B3
:1003C000EC0FFD1F80818111F7CFDF91CF911F913D
:1003D0000F910895CF93DF93EA01811108C0603136
:1003E00030F4862F8F7080680E94820109C08130AE
:1003F00039F4603128F4862F8F70806C0E9482015E
:10040000CE010E94D401DF91CF910895CF93DF9365
:10041000CDB7DEB7A5970FB6F894DEBF0FBECDBF40
:1004200080910403811199C080910D0320E230E294
:100430003CA32BA31DA290917A009923F1F19091F6
:100440000D03992341F090910D039D3028F0809188
:100450000D038C5001C08CE090910D039C3030F462
:1004600021E43DE43CA32BA31DA205C020E53DE40F
:100470003CA32BA31DA240910B0390910C039E0162
:100480002D5D3F4F3F932F931F924F931F929F934A
:100490001F928F9388E890E09F938F931F9281E142
:1004A0008F93CE0101969F938F930E94D0080FB631
:1004B000F894DEBF0FBECDBF1EC020910B039091FC
:1004C0000C0380910D031F922F931F929F931F92F5
:1004D0008F938DE990E09F938F931F9281E18F938B
:1004E000CE0101969F938F930E94D0080FB6F89487
:1004F000DEBF0FBECDBF80910703882359F09091D6
:100500000803992339F02091050330910603211542
:10051000310551F481E1ECEFF0E0DE0152960190FB
:100520000D928A95E1F7B0C03F932F931F928F935E
:100530001F929F9383EB90E09F938F931F9281E193
:100540008F93CE0142969F938F930E94D0080FB64F
:10055000F894DEBF0FBECDBF97C0E0910703EE2336
:1005600059F080910803882339F0209105033091D8
:1005700006032115310551F481E1EDE0F1E0DE01E2
:10058000119601900D928A95E1F71FC03F932F932A
:10059000F0E0EE0FFF1FE05AFF4F91819F93908193
:1005A0009F931F928F9386EC90E09F938F931F925F
:1005B00081E18F93CE0101969F938F930E94D00883
:1005C0000FB6F894DEBF0FBECDBF80910D0320E2C1
:1005D00030E23CA32BA31DA290917A009923D1F184
:1005E00090910D03992341F090910D039D3028F0D7
:1005F00080910D038C5001C08CE090910D039C30D4
:1006000030F421E43DE43CA32BA31DA205C020E56A
:100610003DE43CA32BA31DA290910C039E012D5DF4
:100620003F4F3F932F931F929F931F928F9386ED7F
:1006300090E09F938F931F9281E18F93CE0142961A
:100640009F938F930E94D0080FB6F894DEBF0FBE21
:10065000CDBF1AC090910C0380910D031F929F9300
:100660001F928F9389EE90E09F938F931F9281E169
:100670008F93CE0142969F938F930E94D0080FB61E
:10068000F894DEBF0FBECDBFAE014F5F5F4F60E09D
:1006900080E00E94EA01AE014E5E5F4F60E081E0C3
:1006A0000E94EA01A5960FB6F894DEBF0FBECDBF3B
:1006B000DF91CF910895CF93C82F611108C04031C9
:1006C00030F4842F8F7080680E94820109C06130ED
:1006D00039F4403128F4842F8F70806C0E9482019D
:1006E0008C2F0E949701CF910895CF93DF93CDB7C0
:1006F000DEB761970FB6F894DEBF0FBECDBFDC0149
:10070000862FFD0101900020E9F731974E2F4A1BFB
:10071000413108F040E160E170E0641B71099B0128
:1007200012F42F5F3F4F35952795322F90E009C087
:10073000E1E0F0E0EC0FFD1FE90FF11D20E2208366
:100740009F5F9317A8F320E00DC0FD01E20FF11D9C
:100750003081E1E0F0E0EC0FFD1FE90FF11D308387
:100760002F5F9F5F241788F309C0E1E0F0E0EC0FF2
:10077000FD1FE90FF11D20E220839F5F9031A8F358
:10078000198AAE014F5F5F4F60E00E94EA016196F7
:100790000FB6F894DEBF0FBECDBFDF91CF910895A5
:1007A00081E090917A00911180E080937A000E941C
:1007B000CD0180917A00882331F060E08EE191E0F4
:1007C0000E94750305C060E08BE291E00E94750312
:1007D00082B3806282BB2FEB84ED91E02150804098
:1007E0009040E1F700C0000082B38F7D82BB0E9481
:1007F000CD01089585B3807F8E6085BB8DEE92E03C
:100800000197F1F700C000009C9B41C09D9B41C037
:100810009E9B41C09F9B41C085B3807F8D6085BBFF
:100820008DEE92E00197F1F700C000009C9B37C06D
:100830009D9B37C09E9B37C09F9B37C085B3807FF1
:100840008B6085BB8DEE92E00197F1F700C0000050
:100850009C9B2DC09D9B2DC09E9B2DC09F9B2DC002
:1008600085B3807F876085BB8DEE92E00197F1F7BD
:1008700000C000009C9B23C09D9B23C09E9B23C067
:100880009F9B23C085B38F6085BB81E6089581E37C
:10089000089582E3089583E3089581E4089584E34D
:1008A000089585E3089586E3089582E4089587E333
:1008B000089588E3089589E3089583E408958AE21A
:1008C000089580E3089583E2089584E40895CF9322
:1008D0000E94FA03C82F813639F481EE94E0019723
:1008E000F1F700C00000F4CF83EC99E00197F1F735
:1008F00000C000000E94FA03C813EACF06C081EED0
:1009000094E00197F1F700C000000E94FA03C817B5
:10091000B1F383EC99E00197F1F700C000008C2F50
:10092000CF910895FF920F931F93CF93DF93CDB78D
:10093000DEB727970FB6F894DEBF0FBECDBFF89491
:100940000E94CD0160E088E391E00E9475038091F0
:100950007A00882331F061E081E491E00E94750320
:1009600005C061E080E591E00E9475032FEF80E70C
:1009700092E0215080409040E1F700C000000E94CA
:10098000CD0160E089E591E00E94750345E651E004
:1009900062E081E00E94EA0110E033C00E94670437
:1009A000082F80ED800F8A30C0F441E0123008F447
:1009B00040E081E0143008F480E0480F410F4E5FC2
:1009C00061E0802F0E945B03E1E0F0E0EC0FFD1F8F
:1009D000E10FF11D00831F5F14C00A3291F411234F
:1009E00081F0115041E0123008F440E081E0143011
:1009F00008F480E0480F410F4E5F61E08FE50E94F0
:100A00005B03163058F2898190E0C0979A81880F75
:100A1000082F000F000F800F082F090F0F2EF0ED89
:100A2000FF2EF02DF00E8B8190E0C0979C81880FF7
:100A3000282F220F220F820F890F805380930C03DF
:100A40008D8190E0C0979E81880F282F220F220F62
:100A5000820F890F805380930B0380917A00882343
:100A600041F10E94CD0160E08EE691E00E947503A5
:100A700061E086E791E00E9475030E946704182FE9
:100A80009FEB980F9230C8F70E945A012CE0F212A7
:100A900008C0113411F480E001C08CE080930D0394
:100AA0000AC0113411F0045201C00F2D00930D0340
:100AB00002C0F0920D0310920A0310920903809174
:100AC0000D03883118F087E180930D0380910C03AA
:100AD0008C3318F08BE380930C0380910B038C33E1
:100AE00018F08BE380930B030E94CD0160E083E854
:100AF00091E00E94750382B3886082BB82B38062FA
:100B000082BB8FEF90E722E0815090402040E1F7D8
:100B100000C0000082B3877C82BB0E94CD01789424
:100B200027960FB6F894DEBF0FBECDBFDF91CF91F1
:100B30001F910F91FF900895EF92FF920F931F93D3
:100B4000CF93DF93CDB7DEB729970FB6F894DEBF0A
:100B50000FBECDBF0E94CD0160E08DE891E00E9404
:100B6000750361E086E991E00E9475032FEF80E74D
:100B700092E0215080409040E1F700C000000E94C8
:100B8000CD0160E081EA91E00E9475034DEA51E0F9
:100B900061E081E00E94EA0110E033C00E94670436
:100BA000082F80ED800F8A30C0F441E0123008F445
:100BB00040E081E0143008F480E0480F410F4F5FBF
:100BC00061E0802F0E945B03E1E0F0E0EC0FFD1F8D
:100BD000E10FF11D00831F5F14C00A3291F411234D
:100BE00081F0115041E0123008F440E081E014300F
:100BF00008F480E0480F410F4F5F61E08FE50E94ED
:100C00005B03183058F2898190E0C0979A81880F71
:100C1000182F110F110F810F182F190F10538B81DF
:100C200090E0C0979C81880F482F440F440F840F99
:100C3000482F490F00ED040F2D8130E0205331097A
:100C400088EE93E0289FB001299F700D389F700DAA
:100C500011242E8130E02053310954E6529FC00107
:100C6000539F900D1124680F791F2F8130E0C90127
:100C7000C097FC01EE0FFF1F9C01220F331F220FB4
:100C8000331F220F331FCF01820F931F860F971F31
:100C9000E884F12C20E3E21AF108E80EF91E415332
:100CA0004C3008F058C0B701802F0E948E001123ED
:100CB00009F440C08117F0F180EDE81687E0F806EE
:100CC000C8F194E3E91698E0F906A0F5109308033B
:100CD00000930703F0920603E09205030E94CD0102
:100CE00080910503909106030E945100882351F0E2
:100CF00080910703823031F460E088EB91E00E943C
:100D0000750305C060E083EC91E00E94750382B337
:100D1000806182BB82B3806282BB2FEF80E792E06A
:100D2000215080409040E1F700C0000082B3877CF2
:100D300082BB21C00E94CD0160E08DEC91E00E9459
:100D400075032FEF80E792E0215080409040E1F75B
:100D500000C0000010C00E94CD0160E08BED91E06A
:100D60000E9475032FEF80E792E021508040904071
:100D7000E1F700C000000E94CD0129960FB6F8945B
:100D8000DEBF0FBECDBFDF91CF911F910F91FF90BE
:100D9000EF900895CF930E94CD0160E08AEE91E03C
:100DA0000E94750361E088EF91E00E94750382B3B1
:100DB000806282BB82B3806182BB2FE18FEB92E0C5
:100DC000215080409040E1F700C0000082B3877C52
:100DD00082BB0E94CD0160E087E092E00E94750333
:100DE00061E086E192E00E9475030E946704C82FCB
:100DF0008FEB8C0F8230C8F70E945A0181E0C1341A
:100E000009F080E080937A000E94CD0180917A0001
:100E1000882331F060E08EE191E00E94750305C007
:100E200060E08BE291E00E94750361E085E292E070
:100E30000E94750382B3886082BB2FEF80E792E047
:100E4000215080409040E1F700C0000082B3877FCE
:100E500082BB0E94CD0160E08EE292E00E947503A9
:100E600061E088E391E00E9475032FE18FEB92E04F
:100E7000215080409040E1F700C000000E949204A1
:100E80000E94CD0160E08BE392E00E94750361E077
:100E90008DE891E00E9475032FE18FEB92E02150E5
:100EA00080409040E1F700C000000E949C050E9435
:100EB000CD0160E088E492E00E94750361E088E57E
:100EC00092E00E94750382B3886382BB2FE789EAB0
:100ED00093E0215080409040E1F700C0000082B3D1
:100EE000877C82BB0E94CD01CF910895F8940E9427
:100EF000CD0160E084E692E00E94750361E082E744
:100F000092E00E94750390E019C082B3886382BBAF
:100F100082B3806482BBEBE7F2E93197F1F700C05E
:100F2000000082B3877C82BB82B38F7B82BBEBE7FE
:100F3000F2E93197F1F700C000009F5F953028F388
:100F40000E9467049FEB980F9230D0F7813409F02C
:100F500044C00E946E010E94CD0160E081E892E0F1
:100F60000E94750382B3806182BB10920D031092C0
:100F70000C0310920B0310920A03109209031092B3
:100F8000080310920703109206031092050381E0F4
:100F900080937A00109204030E94CD0160E08EE8F5
:100FA00092E00E94750361E08EE992E00E94750371
:100FB00082B3886382BBFFE729EA83E0F1502040D7
:100FC0008040E1F700C0000082B3877C82BB0E94B2
:100FD000CA060E940602789408950E94CD0160E03E
:100FE0008CEA92E00E94750382B3806282BB9FEF1D
:100FF000E0E7F2E09150E040F040E1F700C000008F
:1010000082B38F7D82BB0E94CD0178940E9406023C
:1010100008958FEF87BB81B3876081BB81B3886000
:1010200081BB81B3806181BB81B3806281BB81B3AD
:10103000806481BB84B38F7084BB84B38F6084BBB6
:1010400085B3806F85BB85B38F6085BB0E94AC0183
:101050000E94490078940E94CD0160E086EB92E006
:101060000E94750361E084EC92E00E94750382B3F4
:10107000806282BB82B3886082BB2FE789EA93E0FB
:10108000215080409040E1F700C0000082B3877C8F
:1010900082BB0E94CD010E94CA060E9406022FE96F
:1010A00086E891E0215080409040E1F700C00000C8
:1010B0000E94CD0110910B03D0E080910B03181713
:1010C00009F110910B030E94060281E0D11180E02A
:1010D000D11104C092B3986092BB03C092B3977FC2
:1010E00092BB90910C03911109C090910B03933026
:1010F00028F492B3906292BBD82F04C092B39F7D24
:1011000092BBD82F0E94FA03C82F8136B1F287E82C
:1011100093E10197F1F700C000000E94FA038136C5
:10112000E1F70E945A01C23471F028F4C33231F160
:10113000C13431F0C2CFC33449F0C43461F0BDCF03
:101140000E949204BACF0E949C05B7CF0E94D003A0
:101150000E940602B2CF81E090910403911180E0D9
:1011600080930403882321F082B3806182BB03C093
:1011700082B38F7E82BB0E9406029FCF0E947607B9
:101180009CCFA29FB001B39FC001A39F700D811D92
:101190001124911DB29F700D811D1124911D089580
:1011A000AEE0B0E0E6EDF8E00C949F0B0D891E89EF
:1011B0008F89988D26E02C831A83098397FF02C0BC
:1011C00080E090E801979E838D83AE01455E5F4F7E
:1011D000698D7A8DCE0101960E9400094D815E8154
:1011E00057FD0AC02F813885421753070CF49A0126
:1011F000F801E20FF31F10822E96E4E00C94BB0B73
:10120000ABE0B0E0E6E0F9E00C94910B6C017B01FF
:101210008A01FC0117821682838181FFCCC1CE0135
:1012200001963C01F6019381F70193FD859193FFAF
:1012300081917F01882309F4BAC1853239F493FD85
:10124000859193FF81917F01853229F4B60190E069
:101250000E94F70AE7CF912C212C312CFFE1F315E6
:10126000D8F08B3279F038F4803279F08332A1F4FF
:10127000232D20611DC08D3261F0803369F4232D50
:10128000216016C0832D8260382EE32DE4603E2E4F
:101290002AC0F32DF8601DC037FC2DC020ED280FAB
:1012A0002A3040F08E32B9F436FC81C1232D2064FF
:1012B000322E19C036FE06C08AE0989E200D1124F9
:1012C000922E11C0EAE02E9E200D1124222EF32D25
:1012D000F0623F2E08C08C3621F4832D8068382EB2
:1012E00002C0883641F4F70193FD859193FF819107
:1012F0007F018111B3CF982F9F7D9554933028F4AF
:101300000C5F1F4F9FE399830DC0833631F0833705
:1013100071F0833509F059C021C0F80180818983BB
:101320000E5F1F4F88248394912C530113C0280112
:10133000F2E04F0E511CF801A080B18036FE03C0D0
:10134000692D70E002C06FEF7FEFC5010E94EC0ACB
:101350004C018201F32DFF773F2E16C0280122E0B9
:10136000420E511CF801A080B18036FE03C0692DE9
:1013700070E002C06FEF7FEFC5010E94E10A4C01EF
:10138000F32DF0683F2E820133FC1BC0822D90E0CC
:1013900088169906B0F4B60180E290E00E94F70A40
:1013A0002A94F4CFF50137FC859137FE81915F01D6
:1013B000B60190E00E94F70A21102A9421E0821AD7
:1013C00091088114910471F7E8C0843611F08936D0
:1013D00041F5F80137FE07C06081718182819381F8
:1013E0000C5F1F4F08C060817181072E000C880BB5
:1013F000990B0E5F1F4FF32DFF763F2E97FF09C00D
:1014000090958095709561957F4F8F4F9F4FF068B5
:101410003F2E2AE030E0A3010E94330B882E86186D
:1014200045C0853731F4232D2F7EB22E2AE030E0DF
:1014300025C0932D997FB92E8F36C1F018F48835C9
:1014400079F0B5C0803719F0883721F0B0C0E92FA6
:10145000E061BE2EB4FE0DC0FB2DF460BF2E09C0AE
:1014600034FE0AC0292F2660B22E06C028E030E0E4
:1014700005C020E130E002C020E132E0F801B7FE13
:1014800007C060817181828193810C5F1F4F06C00C
:101490006081718180E090E00E5F1F4FA3010E9488
:1014A000330B882E8618FB2DFF773F2E36FE0DC09E
:1014B000232D2E7FA22E891458F434FE0BC032FC4B
:1014C00009C0832D8E7EA82E05C0B82CA32C03C086
:1014D000B82C01C0B92CA4FE0FC0FE01E80DF11D0F
:1014E0008081803321F49A2D997EA92E09C0A2FE15
:1014F00006C0B394B39404C08A2D867809F0B394DF
:10150000A3FC11C0A0FE06C0B21488F4280C922CD3
:101510009B180EC0B21460F4B60180E290E00E9405
:10152000F70AB394F7CFB21418F42B1802C0982C12
:10153000212CA4FE10C0B60180E390E00E94F70ABF
:10154000A2FE17C0A1FC03C088E790E002C088E5B6
:1015500090E0B6010CC08A2D867859F0A1FE02C039
:101560008BE201C080E2A7FC8DE2B60190E00E9410
:10157000F70A891438F4B60180E390E00E94F70A74
:101580009A94F7CF8A94F301E80DF11D8081B6019A
:1015900090E00E94F70A8110F5CF222009F442CE94
:1015A000B60180E290E00E94F70A2A94F6CFF60195
:1015B0008681978102C08FEF9FEF2B96E2E10C941A
:1015C000AD0BFC010590615070400110D8F780957B
:1015D00090958E0F9F1F0895FC01615070400190FF
:1015E0000110D8F7809590958E0F9F1F08950F9347
:1015F0001F93CF93DF93FB01238121FD03C08FEF66
:101600009FEF2CC022FF16C046815781248135816F
:101610004217530744F4A081B1819D012F5F3F4FD2
:10162000318320838C93268137812F5F3F4F37830F
:10163000268314C08B01EC01FB010084F185E02DB1
:101640000995892BE1F6D80116968D919C911797F3
:10165000019617969C938E931697CE01DF91CF91AA
:101660001F910F910895FA01AA27283051F12031D6
:1016700081F1E8946F936E7F6E5F7F4F8F4F9F4F26
:10168000AF4FB1E03ED0B4E03CD0670F781F891F68
:101690009A1FA11D680F791F8A1F911DA11D6A0F36
:1016A000711D811D911DA11D20D009F468943F91E9
:1016B0002AE0269F11243019305D3193DEF6CF01E8
:1016C0000895462F4770405D4193B3E00FD0C9F7AE
:1016D000F6CF462F4F70405D4A3318F0495D31FD1B
:1016E0004052419302D0A9F7EACFB4E0A69597956E
:1016F000879577956795BA95C9F700976105710544
:1017000008959B01AC010A2E06945795479537958D
:101710002795BA95C9F7620F731F841F951FA01DE7
:1017200008952F923F924F925F926F927F928F9285
:101730009F92AF92BF92CF92DF92EF92FF920F9360
:101740001F93CF93DF93CDB7DEB7CA1BDB0B0FB66A
:10175000F894DEBF0FBECDBF09942A883988488827
:101760005F846E847D848C849B84AA84B984C884BD
:10177000DF80EE80FD800C811B81AA81B981CE0FB4
:10178000D11D0FB6F894DEBF0FBECDBFED01089599
:04179000F894FFCFFB
:10179400CE02D202D602DA02DE02E202E602EA0255
:1017A400EE02F202F602FA02FE0201001F1C1F1EE4
:1017B4001F1E1F1F1E1F1E1F20253032643A253096
:1017C40032643A2530326420257320200020202002
:1017D400253032643A253032643A25303264202090
:1017E40020200020253032642D253032642D253010
:1017F40034642020200020253032642D25732D25CB
:10180400303464202000202020253032643A2530F2
:10181400326420257320202000202020202530320F
:10182400643A253032642020202020002030302DDE
:1018340030302D3030303020202020200020303037
:101844002D3030302D303030302020202000313207
:101854002D484F5552204D4F44450032342D484FAA
:101864005552204D4F4445005345542054494D454D
:101874000048483A4D4D3A535320414D2F504D00A6
:1018840048483A4D4D3A535300454E54455220541E
:10189400494D453A005F5F3A5F5F3A5F5F005345E9
:1018A4004C4543543A00413D414D20202020423DC7
:1018B400504D0054494D452053455421005345543F
:1018C40020444154450044442D4D4D2D59595959F6
:1018D40000454E54455220444154453A005F5F2D23
:1018E4005F5F2D5F5F5F5F004C454150205945416C
:1018F40052210044415445205345542100494E5639
:10190400414C494420444154452100494E56414CE0
:101914004944204D4F4E54482100494E49544941B1
:101924004C20534554555000506C656173652057E5
:101934006169742E2E2E0053454C45435420464F66
:10194400524D41543A00413D313248522020423DEB
:10195400323448520053454C454354454400535493
:1019640045502031204F4620323A005354455020F0
:1019740032204F4620323A00534554555020434FAD
:101984004D504C45544521005374617274696E671F
:101994002E2E2E0052455345542053595354454D31
:1019A4003F00413D59455320423D43414E43454C40
:1019B40000524553455454494E472E2E2E0052454D
:1019C40053455420434F4D504C45544521005245F6
:1019D4005354415254494E472E2E2E0043414E43F8
:1019E400454C4C4544004449474954414C20434CE0
:1019F4004F434B00574954482044415445002D2D32
:101A04002D004A414E00464542004D41520041508E
:101A140052004D4159004A554E004A554C0041551B
:101A24004700534550004F4354004E4F5600444521
:021A340043006D
:00000001FF
