:020000020000FC
:0200000014C02A
:1000280071C00FE50DBF08E00EBF5CD0BFD063D034
:100038007894F1D109D298D28AEFD3D18AEFD1D16D
:10004800DAD00091620000936D00002700936E00E3
:100058000091620010916D000117C9F000936D00C6
:1000680083D200916E0011E0012700936E000030EA
:1000780011F0939A01C0939800916100003031F417
:1000880000916200033010F4959A01C095981BD135
:100098008136F1F2982F84E1A4D115D18136E9F7A0
:1000A8008CD1913449F0923449F0933449F0943426
:1000B80051F09332A9F0CCCFC9D3CACFABD4C8CFB3
:1000C800A5D552D2C5CF00916A0011E0012700934F
:1000D8006A00003011F0949A01C0949845D2B8CFC4
:1000E800B1D5B6CF0FEF07BB0FE701BB0FE004BBDD
:1000F8000FEF05BB08950BE003BF0BE90CBF02E04F
:1001080009BF08950F931F932F933F930FB70F9332
:100118000091630010916400065F1F4F0093630015
:100128001093640001E000936B000091630010914C
:100138006400083E23E0120790F1085E1340009324
:1001480063001093640000916200039500936200BD
:1001580001E000936C00009162000C3300F100276D
:1001680000936200009161000395009361000C33D5
:10017800B0F00027009361000091600003950093A0
:100188006000083160F0002700936000009165006E
:10019800003029F000916600003009F0FBD50F917E
:1001A8000FBF3F912F911F910F91189584E119D19D
:1001B80088E30BD08CE009D086E007D081E005D039
:1001C80082E00FD180E801D0089588BB909891987B
:1001D800929A1AD192988F9382E003D18F910895C1
:1001E80088BB909A9198929A0FD192988F9382E0B7
:1001F800F8D08F91089581E0E8DF80E8E6DF089580
:100208008191803011F0ECDFFBCF0895603031F43C
:10021800072F0F700068802FD8DFF2CF072F0F70DD
:10022800006C802FD2DFECCF8F93603031F4072F32
:100238000F700068802FC9DF05C0072F0F70006C92
:10024800802FC3DF8F91CCDF08956F93EFE6F0E046
:1002580000271191103019F003950131D0F30031C6
:1002680008F000E110E1101B1695212FEFE6F0E0F1
:10027800AFE7B0E0322F303021F080E28E933A952C
:10028800FACF302F303021F081918E933A95FACF02
:1002980030E1301B321B303021F080E28E933A95EA
:1002A800FACFEFE6F0E000E1003029F08191808399
:1002B800E3950A95F9CF88278083EFE6F0E06F9100
:1002C80070E0A4DF089505B3007F0E6005BB83E0EE
:1002D80088D013B314FF38C015FF38C016FF38C0D4
:1002E80017FF38C005B3007F0D6005BB83E079D0E8
:1002F80013B314FF31C015FF31C016FF31C017FF0B
:1003080031C005B3007F0B6005BB83E06AD013B32F
:1003180014FF2AC015FF2AC016FF2AC017FF2AC0DB
:1003280005B3007F076005BB83E05BD013B314FF00
:1003380023C015FF23C016FF23C017FF23C005B332
:100348000F6005BB81E6089581E31DC082E31BC0F1
:1003580083E319C081E417C084E315C085E313C0A3
:1003680086E311C082E40FC087E30DC088E30BC0A9
:1003780089E309C083E407C08AE205C080E303C0BB
:1003880083E201C084E405B30F6005BB08959BDFD9
:100398008136E9F38F938AE024D095DF982F8F91E7
:1003A8008917A9F78F938FDF982F8F918917D1F32A
:1003B8008F938AE016D08F9108950F9308E2969A4A
:1003C8001CD096981AD00A95D1F70F9108950F93DB
:1003D80008EC969A12D0969810D00A95D1F70F91FA
:1003E80008958F939F939AEF000000009A95E1F784
:1003F8008A95C9F79F918F9108950F9303E500009F
:100408000A95E9F70F9108950F930DE000000A95FA
:10041800E9F70F910895EFDEECE9FEE02ED560E0F4
:1004280014DFEAEAFEE029D561E00FDF959A939A96
:100438008AEFD7DFD6DFD5DFD4DF88ECD2DF02B38F
:10044800077C02BBD8DE0895D6DEE6EBFEE015D5C4
:1004580060E0FBDEE4ECFEE010D561E0F6DE959AA4
:10046800949A8AEFBEDF8AEFBCDF8AEFBADF86E9AB
:10047800B8DF02B3077C02BBBEDEE4EDFEE0FDD4CC
:1004880060E0E3DEE4EEFEE0F8D461E0DEDE7FDF8C
:10049800813419F0823461F0FACF01E000936900E9
:1004A8008CDFA9DEE4EFFEE0E8D460E0CEDE0AC02F
:1004B80000270093690081DF9EDEE2E0FFE0DDD4E3
:1004C80060E0C3DEE0E1FFE0D8D461E0BEDE939AED
:1004D8008AEF87DF8AEF85DF8AEF83DF82E381DFB8
:1004E800939800C088DEEAE1FFE0C7D460E0ADDEA3
:1004F800E6E3FFE0C2D461E0A8DE8AEF72DF8AEFAC
:1005080070DF8AEF6EDF86E96CDFA0D174DEE8E287
:10051800FFE0B3D460E099DEE0E4FFE0AED461E050
:1005280094DE8AEF5EDF8AEF5CDF8AEF5ADF86E9C6
:1005380058DF70D260DEE8EEFFE09FD460E085DE31
:10054800EAEFFFE09AD461E080DE02B3086302BB01
:100558008AEF47DF46DF45DF44DF88EC42DF02B33E
:10056800077C02BB48DE089500916A00003009F05C
:10057800C6C00091600000938E00112710938F0071
:1005880020916900203011F40C941D03003021F4EF
:100598000CE000938E0005C00D3018F00C5000934D
:1005A8008E00009160000C3018F011E010938F005D
:1005B800EFE6F0E080E2819300918E001CD4812F59
:1005C8008193822F81938AE381930091610013D4F0
:1005D800812F8193822F81938AE381930091620016
:1005E8000AD4812F8193822F819380E28193309165
:1005F8006900303089F030918F00303029F481E47F
:1006080081938DE4819304C080E581938DE4819387
:1006180080E28193819305C080E2819381938193E5
:10062800819388278083EFE6F0E060E070E0EEDDFC
:100638002BC0EFE6F0E080E28193819381930091F3
:100648006000D9D3812F8193822F81938AE381938C
:1006580000916100D0D3812F8193822F81938AE307
:10066800819300916200C7D3812F8193822F819358
:1006780080E2819381938193819388278083EFE639
:10068800F0E060E070E0C2DDEFE6F0E080E2819348
:1006980000916500003081F480E3819381938DE2BD
:1006A800819380E3819381938DE2819380E38193A9
:1006B80081938193819317C0009165009CD3812F0A
:1006C8008193822F81938DE281930091660093D369
:1006D800812F8193822F81938DE28193009167000E
:1006E800109168009BD380E281938193819388273E
:1006F8008083EFE6F0E061E070E088DD0895EFE6E2
:10070800F0E080E2819300916500003089F480E395
:10071800819381938DE281938DE28193819381937B
:100728008DE2819380E381938193819381931BC0B0
:100738000091650060D3812F8193822F81938DE290
:1007480081930091660083D385918D9385918D93D4
:1007580085918D93EA2FFB2F8DE28193009167009D
:10076800109168005BD380E281938193882780830E
:10077800EFE6F0E060E070E049DDEFE6F0E080E20F
:100788008193819381930091600000938E001127DB
:1007980010938F00209169002030C1F1003021F4BE
:1007A8000CE000938E0005C00D3018F00C5000933B
:1007B8008E00009160000C3018F011E010938F004B
:1007C80000918E0018D3812F8193822F81938AE321
:1007D8008193009161000FD3812F8193822F8193A0
:1007E80080E2819330918F00303029F481E4819345
:1007F8008DE4819304C080E581938DE4819380E248
:10080800819381938193882780831AC080E28193A2
:1008180000916000F0D2812F8193822F81938AE327
:10082800819300916100E7D2812F8193822F819378
:1008380080E2819381938193819381938827808338
:10084800EFE6F0E061E070E0E1DC0895F894D3DCD5
:10085800E6E3FFE012D360E0F8DC009169000030C5
:1008680021F0EAE4FFE009D303C0EAE5FFE005D39D
:1008780061E0EBDC8AEFB5DD8AEFB3DD8AEFB1DD4D
:1008880082E3AFDDB8DCE4E6FFE0F7D260E0DDDC70
:100898008FE561E072E0C8DC73E0C6DC8AE374E0EF
:1008A800C3DC8FE575E0C0DC76E0BEDC8AE377E088
:1008B800BBDC8FE578E0B8DC79E0B6DC0027009394
:1008C8008D0000918D000630A8F561DD8A32E9F0CF
:1008D8008033B8F38A33A8F700918D00A0E8B0E020
:1008E800A00FB11D8C9312E0100F202F223008F0BA
:1008F8001395243008F01395712F61E095DC009171
:100908008D00039500938D00DCCF00918D000030A1
:10091800C1F20A9500938D0012E0100F202F2230AB
:1009280008F01395243008F01395712F61E08FE5D6
:100938007BDCC7CFA0E8B0E00D9100531AE0019F1F
:10094800202D0D910053200F0D9100531AE0019FA7
:10095800302D0D910053300F309361000D910053ED
:100968001AE0019F402D0D910053400F4093620003
:10097800009169000030E1F03EDCE2E7FFE07DD263
:1009880060E063DCECE7FFE078D261E05EDCFFDC8E
:10099800813419F0823439F0FACF0FDD2C3011F49C
:1009A800222706C005C009DD2C3011F0245F00C0E5
:1009B8002093600000270093630000936400009177
:1009C8006000083118F007E10093600000916100B1
:1009D8000C3318F00BE300936100009162000C33B4
:1009E80018F00BE30093620006DCEAE8FFE045D26A
:1009F80060E02BDC939A959A8AEFF3DC8AEFF1DCBE
:100A08008AEFEFDC82E3EDDC02B3077C02BBF3DBA9
:100A180078940895F0DBE0E4FFE02FD260E015DC85
:100A2800E6E9FFE02AD261E010DC8AEFDADC8AEF3F
:100A3800D8DC8AEFD6DC82E3D4DCDDDBE2EAFFE057
:100A48001CD260E002DC8FE561E071E0EDDB72E072
:100A5800EBDB8DE273E0E8DB8FE574E0E5DB75E066
:100A6800E3DB8DE276E0E0DB8FE577E0DDDB78E065
:100A7800DBDB79E0D9DB7AE0D7DB002700938D0058
:100A880000918D000830A8F582DC8A32E9F08033C5
:100A9800B8F38A33A8F700918D00A0E8B0E0A00F62
:100AA800B11D8C9311E0100F202F223008F0139500
:100AB800243008F01395712F61E0B6DB00918D00AA
:100AC800039500938D00DCCF00918D000030C1F2BA
:100AD8000A9500938D0011E0100F202F223008F0A6
:100AE8001395243008F01395712F61E08FE59CDB96
:100AF800C7CFA0E8B0E00D9100531AE0019F202D68
:100B08000D910053200F0D9100531AE0019F302DD5
:100B18000D910053300F0D9100531AE0019F402DA5
:100B28000D91005314E6019F400D0D9100531AE0FA
:100B3800019F400D0D910053400F512D3130B0F100
:100B48003D30A0F5032F142F06D1281710F009F017
:100B58003DC0443610F00C94FA052093650030939C
:100B68006600409367005093680045DB042FDED091
:100B7800803041F000916600023021F4ECEBFFE098
:100B88007CD103C0E0EBFFE078D160E05EDB949AB3
:100B9800959A8AEF26DC8AEF24DC8AEF22DC82E34E
:100BA80020DC02B3077C02BB26DB089524DBE8ECDB
:100BB800FFE063D160E049DB8AEF13DC8AEF11DCE8
:100BC8008AEF0FDC82E30DDC16DB089514DBE8ED19
:100BD800FFE053D160E039DB8AEF03DC8AEF01DC08
:100BE8008AEFFFDB82E3FDDB06DB089504DBE8ED3B
:100BF800FFE043D160E029DB8AEFF3DB8AEFF1DB2A
:100C08008AEFEFDB82E3EDDBF6DA08950091690005
:100C180011E0012700936900EEDA003021F0E4EFDB
:100C2800FEE02BD103C0E2E0FFE027D160E00DDB5E
:100C3800959A8AEFD6DB8AEFD4DB84E6D2DB9598E7
:100C4800DADA0895F894D7DAE8E0F0E116D160E04E
:100C5800FCDAE8E1F0E111D161E0F7DA05E00F93A1
:100C680002B3086302BB969A86E9BBDB02B3077C32
:100C780002BB969886E9B5DB0F910A9581F787DB69
:100C8800813419F08234F1F1FACFA1DBB4DAE8E269
:100C9800F0E1F3D060E0D9DA949A0027009360007D
:100CA8000093610000936200009363000093640066
:100CB8000093650000936600009367000093680046
:100CC80001E000936900002700936A0094DAE6E3E4
:100CD800F0E1D3D060E0B9DAE8E4F0E1CED061E049
:100CE800B4DA02B3086302BB8AEF7BDB7ADB79DB19
:100CF80078DB88EC76DB02B3077C02BBA5DB34DC4F
:100D08007894089578DAE8E5F0E1B7D060E09DDA04
:100D1800959A8AEF66DB8AEF64DB8AEF62DB82E30F
:100D280060DB959868DA78941FDC08950F931F9319
:100D3800102F137011F088270BC014E665D090307F
:100D480031F4043611F481E003C0882701C081E042
:100D58001F910F9108950F931F93003011F48FE1A5
:100D680016C00D3010F08FE112C0023051F40F930D
:100D7800012FDCDF0F91803011F08DE108C08CE18C
:100D880006C0EEE8F0E10A95E00FF11D84911F918D
:100D98000F9108950F931F932F930091650003956A
:100DA80010916600209167000F93012F122FD3DF57
:100DB8000F910817D0F0C9F001E000936500109179
:100DC800660013951D3070F011E0109366002091B5
:100DD8006700309168002F5F3F4F20936700309382
:100DE800680005C01093660002C0009365002F914B
:100DF8001F910F9108950F931AE006D0182F105DD8
:100E0800292F205D0F9108950F938827902F911710
:100E180018F0911B8395FBCF0F9108950F931F93A3
:100E280082E38193012F14E6EFDF282F80E3820FFE
:100E38008193092F1AE0E8DF282F80E3820F81933E
:100E4800292F80E3820F81931F910F9108950F93AB
:100E58001F93003019F4E4E6F0E10CC00D3018F0EF
:100E6800E4E6F0E107C00A9513E0019FE8E6F0E147
:100E7800E00DF11D1F910F910895EF93FF930F93CC
:100E8800AFE6B0E005910D930030E1F70F91FF91C7
:100E9800EF9108954449474954414C20434C4F43EE
:100EA8004B00574954482044415445000000494EDE
:100EB800495449414C20534554555000506C656184
:100EC800736520576169742E2E2E000053454C45DA
:100ED800435420464F524D41543A0000413D31326F
:100EE80048522020423D32344852000031322D48C9
:100EF8004F5552204D4F4445000032342D484F5530
:100F080052204D4F4445000053454C4543544544F9
:100F18000000535445502031204F4620323A0000FB
:100F2800535445502032204F4620323A0000534552
:100F3800542054494D4500005345542044415445DC
:100F4800000048483A4D4D3A535320414D2F504DDB
:100F5800000048483A4D4D3A53530000454E544519
:100F6800522054494D453A00000053454C454354DE
:100F78003A000000413D414D20202020423D504D87
:100F8800000054494D452053455421000000444475
:100F98002D4D4D2D595959590000454E5445522053
:100FA800444154453A0000004441544520534554B7
:100FB800210000004C454150205945415221000074
:100FC800494E56414C4944204D4F4E54482100004B
:100FD800494E56414C4944204441544521000000A3
:100FE800534554555020434F4D504C4554452100CE
:100FF80000005374617274696E672E2E2E00000013
:1010080052455345542053595354454D3F00000011
:10101800413D59455320423D43414E43454C000014
:10102800524553455454494E472E2E2E00005245E2
:1010380053455420434F4D504C4554452100000022
:1010480052455354415254494E472E2E2E0000000B
:1010580043414E43454C4C45440000002D2D2D0086
:101068004A414E4645424D41524150524D41594ADE
:10107800554E4A554C4155475345504F43544E4F92
:101088005644454300001F1C1F1E1F1E1F1F1E1F06
:021098001E1F19
:00000001FF
